{
    "contractName": "StateConnector",
    "abi": [
        {
            "inputs": [],
            "stateMutability": "nonpayable",
            "type": "constructor"
        },
        {
            "anonymous": false,
            "inputs": [
                {
                    "indexed": false,
                    "internalType": "uint64",
                    "name": "chainId",
                    "type": "uint64"
                },
                {
                    "indexed": false,
                    "internalType": "uint64",
                    "name": "ledger",
                    "type": "uint64"
                },
                {
                    "indexed": false,
                    "internalType": "bytes32",
                    "name": "txId",
                    "type": "bytes32"
                },
                {
                    "indexed": false,
                    "internalType": "uint16",
                    "name": "utxo",
                    "type": "uint16"
                },
                {
                    "indexed": false,
                    "internalType": "bytes32",
                    "name": "paymentHash",
                    "type": "bytes32"
                }
            ],
            "name": "PaymentSet",
            "type": "event"
        },
        {
            "inputs": [
                {
                    "internalType": "uint64",
                    "name": "chainId",
                    "type": "uint64"
                },
                {
                    "internalType": "uint64",
                    "name": "ledger",
                    "type": "uint64"
                },
                {
                    "internalType": "bytes32",
                    "name": "txId",
                    "type": "bytes32"
                },
                {
                    "internalType": "uint16",
                    "name": "utxo",
                    "type": "uint16"
                },
                {
                    "internalType": "bytes32",
                    "name": "destinationHash",
                    "type": "bytes32"
                },
                {
                    "internalType": "bytes32",
                    "name": "dataHash",
                    "type": "bytes32"
                },
                {
                    "internalType": "uint256",
                    "name": "amount",
                    "type": "uint256"
                }
            ],
            "name": "getPaymentFinality",
            "outputs": [
                {
                    "internalType": "bool",
                    "name": "_proven",
                    "type": "bool"
                }
            ],
            "stateMutability": "view",
            "type": "function"
        },
        {
            "inputs": [
                {
                    "internalType": "uint64",
                    "name": "chainId",
                    "type": "uint64"
                },
                {
                    "internalType": "uint64",
                    "name": "ledger",
                    "type": "uint64"
                },
                {
                    "internalType": "bytes32",
                    "name": "txId",
                    "type": "bytes32"
                },
                {
                    "internalType": "uint16",
                    "name": "utxo",
                    "type": "uint16"
                },
                {
                    "internalType": "bytes32",
                    "name": "paymentHash",
                    "type": "bytes32"
                }
            ],
            "name": "setPaymentFinality",
            "outputs": [
                {
                    "internalType": "uint256",
                    "name": "_instructions",
                    "type": "uint256"
                },
                {
                    "internalType": "bytes32",
                    "name": "_txId",
                    "type": "bytes32"
                },
                {
                    "internalType": "bytes32",
                    "name": "_paymentHash",
                    "type": "bytes32"
                }
            ],
            "stateMutability": "nonpayable",
            "type": "function"
        }
    ],
    "bytecode": "608060405234801561001057600080fd5b50610ddd806100206000396000f3fe608060405234801561001057600080fd5b50600436106100365760003560e01c8063a2d49e031461003b578063b38f3d3e14610063575b600080fd5b61004e610049366004610cac565b610091565b60405190151581526020015b60405180910390f35b610076610071366004610d14565b610474565b6040805193845260208401929092529082015260600161005a565b6000806040516020016100c7907f466c6172655374617465436f6e6e6563746f725f4c4f434154494f4e000000008152601c0190565b60405160208183030381529060405280519060200120896040516020016100ee9190610d69565b60405160208183030381529060405280519060200120896040516020016101159190610d69565b60408051601f1981840301815282825280516020918201209083018c90529101604051602081830303815290604052805190602001208960405160200161016f919060f09190911b6001600160f01b031916815260020190565b60408051601f198184030181528282528051602091820120908301969096528101939093526060830191909152608082015260a081019190915260c00160405160208183030381529060405280519060200120905060006040516020016101f9907f466c6172655374617465436f6e6e6563746f725f46494e414c495345440000008152601d0190565b60408051808303601f190181528282528051602091820120818401528282018590528151808403830181526060840190925281519101207f466c6172655374617465436f6e6e6563746f725f5041594d454e54484153480060808301529150600090609f016040516020818303038152906040528051906020012087878760405160200161028991815260200190565b60408051601f198184030181528282528051602091820120908301959095528101929092526060820152608081019190915260a00160408051601f19818403018152918152815160209283012060008581529283905291205490915060ff166103325760405162461bcd60e51b81526020600482015260166024820152751c185e5b595b9d08191bd95cc81b9bdd08195e1a5cdd60521b60448201526064015b60405180910390fd5b600082815260208190526040902054610100900460ff166103955760405162461bcd60e51b815260206004820152601960248201527f7061796d656e74206973206e6f74207965742070726f76656e000000000000006044820152606401610329565b60008281526020819052604090206002015467ffffffffffffffff8b81169116146103f95760405162461bcd60e51b8152602060048201526014602482015273696e76616c6964206c65646765722076616c756560601b6044820152606401610329565b600082815260208190526040902060030154811461044f5760405162461bcd60e51b81526020600482015260136024820152720d2dcecc2d8d2c840e0c2f2dacadce890c2e6d606b1b6044820152606401610329565b50600090815260208190526040902054610100900460ff169998505050505050505050565b6000806000808767ffffffffffffffff16116104c05760405162461bcd60e51b815260206004820152600b60248201526a06c6564676572203d3d20360ac1b6044820152606401610329565b856104fb5760405162461bcd60e51b815260206004820152600b60248201526a074784964203d3d203078360ac1b6044820152606401610329565b8361053d5760405162461bcd60e51b815260206004820152601260248201527107061796d656e7448617368203d3d203078360741b6044820152606401610329565b4133148061054e575041600160981b145b61059a5760405162461bcd60e51b815260206004820152601c60248201527f696e76616c696420626c6f636b2e636f696e626173652076616c7565000000006044820152606401610329565b6040517f466c6172655374617465436f6e6e6563746f725f4c4f434154494f4e000000006020820152600090603c0160405160208183030381529060405280519060200120896040516020016105f09190610d69565b60405160208183030381529060405280519060200120896040516020016106179190610d69565b60408051601f1981840301815282825280516020918201209083018c905291016040516020818303038152906040528051906020012089604051602001610671919060f09190911b6001600160f01b031916815260020190565b60408051601f198184030181528282528051602091820120908301969096528101939093526060830191909152608082015260a081019190915260c00160405160208183030381529060405280519060200120905060006040516020016106fb907f466c6172655374617465436f6e6e6563746f725f46494e414c495345440000008152601d0190565b60408051601f19818403018152828252805160209182012090830152810183905260600160408051808303601f190181529181528151602092830120600081815292839052912054909150610100900460ff16156107945760405162461bcd60e51b81526020600482015260166024820152753830bcb6b2b73a1030b63932b0b23c90383937bb32b760511b6044820152606401610329565b6000806040516020016107ca907f466c6172655374617465436f6e6e6563746f725f50524f504f534544000000008152601c0190565b60408051808303601f1901815282825280516020918201203360601b6bffffffffffffffffffffffff191682850152825160148186030181526034850184528051908301206054850191909152607484015260948084018890528251808503909101815260b4909301825282519281019290922060008181529283905291205490915060ff16156109f9576000818152602081905260409020600101544210156108dc5760405162461bcd60e51b815260206004820152603e60248201527f626c6f636b2e74696d657374616d70203c207061796d656e74735b70726f706f60448201527f7365645061796d656e744c6f636174696f6e5d2e72657665616c54696d6500006064820152608401610329565b60008181526020819052604090206001015442906108fe906201518090610d81565b116109405760405162461bcd60e51b815260206004820152601260248201527172657665616c20697320746f6f206c61746560701b6044820152606401610329565b60008181526020819052604090206002015467ffffffffffffffff8c811691161461099e5760405162461bcd60e51b815260206004820152600e60248201526d34b73b30b634b2103632b233b2b960911b6044820152606401610329565b60008181526020819052604090206003015488146109f45760405162461bcd60e51b81526020600482015260136024820152720d2dcecc2d8d2c840e0c2f2dacadce890c2e6d606b1b6044820152606401610329565b610a16565b413314801590610a0c575041600160981b145b15610a1657600191505b4133148015610a29575041600160981b14155b15610c305760008181526020819052604090205460ff16610af0576040805160a0810182526001815260006020820152908101610a67601e42610d81565b815267ffffffffffffffff8d811660208084019190915260409283018c90526000858152808252839020845181549286015161ffff1990931690151561ff0019161761010092151592909202919091178155918301516001830155606083015160028301805467ffffffffffffffff191691909216179055608090910151600390910155610c30565b6040518060a001604052806001151581526020016001151581526020014281526020018c67ffffffffffffffff1681526020018981525060008085815260200190815260200160002060008201518160000160006101000a81548160ff02191690831515021790555060208201518160000160016101000a81548160ff0219169083151502179055506040820151816001015560608201518160020160006101000a81548167ffffffffffffffff021916908367ffffffffffffffff160217905550608082015181600301559050507f2f93dda1ae4bd2cf0704fbf6e4725debf6abbc12b33411626fe1a571a59d502f8c8c8c8c8c604051610c2795949392919067ffffffffffffffff9586168152939094166020840152604083019190915261ffff166060820152608081019190915260a00190565b60405180910390a15b8861ffff1660408c67ffffffffffffffff16901b60808e67ffffffffffffffff16901b60c085610c61576000610c64565b60015b60ff16901b1717179c999b509699505050505050505050565b803567ffffffffffffffff81168114610c9557600080fd5b919050565b803561ffff81168114610c9557600080fd5b600080600080600080600060e0888a031215610cc757600080fd5b610cd088610c7d565b9650610cde60208901610c7d565b955060408801359450610cf360608901610c9a565b9699959850939660808101359560a0820135955060c0909101359350915050565b600080600080600060a08688031215610d2c57600080fd5b610d3586610c7d565b9450610d4360208701610c7d565b935060408601359250610d5860608701610c9a565b949793965091946080013592915050565b60c09190911b6001600160c01b031916815260080190565b60008219821115610da257634e487b7160e01b600052601160045260246000fd5b50019056fea2646970667358221220d9968444f5f5dc96757f85e23abbf54195c8375e6e8433691beb1d9d3296680964736f6c63430008090033",
    "sourcePath": "/home/my-usern/flare/src/stateco/StateConnector.sol",
    "compiler": {
        "name": "solc",
        "version": "0.8.9+commit.e5eed63a"
    },
    "functionHashes": {
        "getPaymentFinality(uint64,uint64,bytes32,uint16,bytes32,bytes32,uint256)": "a2d49e03",
        "setPaymentFinality(uint64,uint64,bytes32,uint16,bytes32)": "b38f3d3e"
    },
    "gasEstimates": {
        "creation": {
            "codeDepositCost": "709800",
            "executionCost": "741",
            "totalCost": "710541"
        },
        "external": {
            "getPaymentFinality(uint64,uint64,bytes32,uint16,bytes32,bytes32,uint256)": "infinite",
            "setPaymentFinality(uint64,uint64,bytes32,uint16,bytes32)": "infinite"
        }
    }
}